:020000040000fa
:080000000001040000000000f3
:020000040000fa
:100008009a0100009a0100009a0100009a0100007c
:100018009a0100009a0100009a0100009a0100006c
:100028009a0100009a0100009a0100009a0100005c
:100038009a0100009a0100000e0d00009a010000cc
:100048009a0100009a0100009a0100009a0100003c
:100058009a0100009a0100009a0100009a0100002c
:100068009a0100009a0100009a0100009a0100001c
:100078009a0100009a0100009a0100009a0100000c
:100088009a0100009a0100009a0100009a010000fc
:100098009a0100009a0100009a0100009a010000ec
:1000a8009a0100009a0100009a0100009a010000dc
:1000b800d80400009a010000061300009a0100000d
:1000c8009a0100009a0100009a0100009a010000bc
:1000d8009a0100009a0100009a0100009a010000ac
:1000e8009a0100009a0100009a0100009a0100009c
:0800f8009a0100009a010000ca
:020000040000fa
:100108009a0100009a0100009a0100009a0100007b
:100118009a0100009a0100009a0100009a0100006b
:100128009a0100009a0100009a0100009a0100005b
:100138009a0100009a0100000e0d00009a010000cb
:100148009a0100009a0100009a0100009a0100003b
:100158009a0100009a0100009a0100009a0100002b
:100168009a0100009a0100009a0100009a0100001b
:100178009a0100009a0100009a0100009a0100000b
:100188009a0100009a0100009a0100009a010000fb
:100198009a0100009a0100009a0100009a010000eb
:1001a8009a0100009a0100009a0100009a010000db
:1001b800d80400009a010000061300009a0100000c
:1001c8009a0100009a0100009a0100009a010000bb
:1001d8009a0100009a0100009a0100009a010000ab
:1001e8009a0100009a0100009a0100009a0100009b
:0801f8009a0100009a010000c9
:020000040000fa
:100200002fa820000e7f22000e01880000000000b1
:10021000000020000000e000020032000001200089
:10022000200288000c00070080a7210001002000a8
:1002300011000700000020000000e0000200320072
:100240000000020000000000861a0200000000000a
:100250000040da000000fe004440a90080002000b9
:100260000000e0000300320000002000a001880030
:100270004440a8000000060091018800800078003a
:100280000000eb0015003700e280400032a0b4000f
:100290009101ba00e280400032a0b4009102ba009d
:1002a000e280400032a0b4000002eb00472bde00e9
:1002b000f507b200602ce10004003a000059eb00a1
:1002c0008301e900fdff3e00040037006128e100e2
:1002d000010032000082eb00040007001101ba00a7
:1002e0000200e000e8ff3a00000006003159ba00c1
:1002f0008301e9000c0032002159ba008301e900b2
:10030000080032000400e00003003a00e2804000f0
:1003100032a0b400f5ff370011d9ba008301e9001b
:10032000faff3a008100e800e180400032a0b4000a
:10033000000006000040da000000fe0003f0a2000a
:10034000889fbe008a9fbe008c1f7800f3000700c4
:10035000fa0033006450e1004f0032006420e100f5
:100360005200320003826c0007003b000905d000f8
:100370000306d000820f54000c065d000200390015
:10038000020032008901780003067800858255005a
:1003900004003d000003fd008103fd008502ea002a
:1003a0008b854200840f720002003b006000100049
:1003b000e08018006011b8000005eb007a28e10029
:1003c0000a00390006007800c75ddd00f707b200bb
:1003d000878075002d003700828171000a01780046
:1003e000610560008180d1000080d3008502e900b2
:1003f000f9ff3b00060440008784480002003b00f0
:1004000060041400e0841c000988a3000700320087
:100410008a81710082817100610164008904d100c8
:100420000884d3008b05e800170037000978a30083
:1004300013003a000b00e000130034008b05e900c4
:100440000804440089844c000a4474000978a3001d
:100450000d003a000b00e000070034008b05e900b6
:100460000804440089844c0001003a000b0020007d
:100470000978a300f7ff32000001eb00020037000b
:10048000828171000a017800690007000cf0a70062
:1004900001f0a000b20037006420e10002003a0041
:1004a000838f6c00b20033000801be000200be0062
:1004b000ab003700889fbe008a9fbe008c1f78006b
:1004c000960007009d00330003866c006450e10035
:1004d0002e0032006420e100330032006150e10060
:1004e0002f0032006120e100310032008585550087
:1004f000eb07b000090020000804200005003700c9
:100500000804440089844c000a00310006034300bb
:1005100087834b000001530081815b00f8ff3300ab
:100520000203be000800a0000804440089844c00b7
:10053000f6ff3900c639dd00830173000100320087
:10054000130020008904d1000884d3000998a30077
:10055000050032000800a7000300a0008904d100b4
:100560000884d3008b05e8008904d1000884d300f7
:100570000001eb000281d2002d00070001f0a10074
:100580000cf0a70001f0a000750037006420e10026
:10059000770032000801be000200be00f7ff3700fe
:1005a0006120e100720032006000b800f3ff370004
:1005b0000000200001f82700f0ff37000001be0016
:1005c000410007000470a70003f0a10003f8a30096
:1005d00013003a006509b10010003200090035002f
:1005e0006928e10002003500010028000000050034
:1005f00000004000818048008502e900fcff3a00cd
:1006000000000600f88f4200050035008100d1008f
:100610000080d3008502e800fcff3a0000000600dd
:100620008000eb00000005006011b8008700370073
:1006300081002000618055000b003d000b00200070
:1006400061fe2f000100e1001d0034008281710075
:10065000610164008904d1000884d3000000e8002f
:10066000faff3a007100200061006400030070008e
:10067000020060000900320061044400e0844c0084
:100680000988a500050032008b05e8006808e10034
:1006900002003a008904d1000884d300f20f200040
:1006a0000258e10005003d00c75ddd00f907b2001a
:1006b0008980750008007800000006000bf827000c
:1006c0008b00780000000500c70ade00f107b200c9
:1006d000f50fb20008003200e1cf42000200320004
:1006e0000170a00024000500810f7000010032009d
:1006f0000408050044000500810f700002003a0064
:10070000140005008502e9000000400081c0480097
:10071000fcff3b000170a000240005000004be00a7
:10072000e9ff07000003be000405be000200be0092
:10073000e5ff0700844f7500000006000200be00c0
:100740006450e100050036006420e100020036003c
:100750000968a30001003a000800be000160a00083
:100760004f0678004f05be004f04be000000060093
:10077000f0ff2f00f1ff2700f9ff3700889fbe0030
:100780008a9fbe008c1f7800e4ff0700ebff330058
:1007900003866c006450e100240032006420e10014
:1007a000270032006150e100220032006120e100a8
:1007b000210032008b854200eb07b1000134b80004
:1007c000003ab8000804420089844a00013ab8009f
:1007d0000030b8008880400009014a00040033005e
:1007e0000000400081804800020149008b05e900bb
:1007f000c909dd00830170000100320013002000f0
:10080000c814de004814dd004709de001200b20003
:10081000c808de000884700085ff070001f0a10011
:100820000cf0a70001f0a000cdff37006120e1002f
:10083000cfff32000801be000200be00f7ff370004
:100840006150e100fcff3a00c9ff3700889fbe00fd
:100850008a9fbe0000827000040271000482710051
:10086000260032000004be000200be006011b80085
:100870006b092000950220000182cf000a00390098
:100880000541b1000082cf00070039000541b100e9
:100890000982cf00040039000541b1000882cf0071
:1008a000010039000541b10005425200120032003a
:1008b0000a003b0082817100610164008100d10067
:1008c0000080d3008984d3000884d3008b05e8001e
:1008d0000442e800f7ff3a0007003700080444002c
:1008e00089844c0000004800818048008b05e900a5
:1008f0000442e900f9ff3a004dff07004f05be0032
:080900004f04be0000000600d8
:020000040000fa
:100908000f0000005f000000af000000ff000000c3
:020000040000fa
:100918000000fa000042eb000002fd0081eab70087
:100928000002fd000060fe0001003700000000002a
:1009380014a82000144278000482fb00e10f520042
:1009480012003200e50f520013003200e00f52008f
:10095800f6ff3a000060fe00870707000060fe000f
:1009680011090700004278000002fd007beab70089
:100978000002fd000060fe0014c0b3000002fd008c
:1009880081eab7000002fd00060037000060fe00a3
:10099800e7030700030037000060fe00e4030700d8
:1009a80000000000e2ff37003600f800809fbe001c
:1009b800829fbe00849fbe00869fbe00889fbe00a7
:1009c8004400f8004200f8000000fa000517800013
:1009d8000404200004826200e00f52001f003a0065
:1009e800b45380000402e800b45388002802800051
:1009f80019028000390007001902880028028800bf
:100a08002802800019028000b4000700190288003b
:100a180028028800e4a72000144278000482fb0022
:100a280068026200e00f5200060032009453800012
:100a38000402e800945388000002eb00a4538800e5
:100a4800160037000002eb0094538800a45380007e
:100a58000402e800a45388001000370014c0b30053
:100a68000002fd0064eab7000002fd000042eb004e
:100a78000002fd006deab7000002fd000042eb0035
:100a88000002fd006ceab7000002fd000002eb0066
:100a9800945388000002eb00a453880028028000c9
:100aa80019028000cf000700190288002802880078
:100ab8008880a9000080fa004200f9004400f9008b
:100ac8004f04be004f03be004f02be004f01be00e0
:100ad8004f00be003600f900004006000400fa008e
:100ae800e8c2a90000000000d682a90000000000aa
:100af80010002000010020006d0a0700d682a8001f
:100b0800000000001000200001002000680a070013
:100b1800341780004722de00614262000482fb0035
:100b2800040f78000042eb002447980012003700b9
:100b3800e8c2a800000000001e027800040242007b
:100b4800040f7800341780004722de0061426200fb
:100b58000482fb001e0f7200e8c2a900000000001a
:100b68001000200001002000510a07002e429000ca
:100b78000442e800244798002e429000e74f5200b4
:100b8800ebff3600d682a900000000000410200008
:100b98001e026200e00f52000500320000c2eb00a6
:100ba8000002fd006ceab7000002fd0004003700f7
:100bb8001e02780004427800040078006ceab7004e
:100bc800c4a6200014427800044078000d000700f5
:100bd800004278000002fd006deab7000002fd0047
:100be800d4a6200014427800ec4f420002003e00d8
:100bf800e042a90001003700e042a8000080fa00a6
:100c0800000006000400fa00204798002e429000d9
:100c1800ea4f5200120036000002eb00040f780081
:100c2800040037002e4290000442e900244798004f
:100c38001e0fe8002e4290008482fb00b4002000c2
:100c4800110009008482d80001027800044278006b
:100c58000482fb009e0f5200f2ff3d0002003700a5
:100c68000042eb0024479800c5a720009542780071
:100c78002e42900084cf52001100320004a82000b8
:100c8800144278000442e8000002fd0080eab70040
:100c98000002fd0004a8200014427800ee4f520024
:100ca80004003e00c4a7200014427800244798009e
:100cb800060037002e4090007ceab700030037009a
:100cc8000042eb000400780080eab7002e42900052
:100cd800044078000080fa00000006000000fa00d6
:100ce8004416800068026200e00f520021003200c2
:100cf8004416800064026200e00f52001d003200ba
:100d0800151680000400210004826200e00f5200e2
:100d18000c00320000000000d6e2a800000000002d
:100d2800d662a80000000000d1c2a80000000000a0
:100d380014c0b3000002fd007deab7000002fd0008
:100d48002600370000000000d6e2a90000000000dd
:100d5800d662a80000000000d1c2a900000000006f
:100d68000042eb000002fd007deab7000002fd0032
:100d78001a0037004416800064026200e00f520037
:100d88000c00320000000000d6e2a80000000000bd
:100d9800d662a90000000000d1c2a900000000002e
:100da8000042eb000002fd007deab7000002fd00f2
:100db8000a00370000000000d6e2a800000000008a
:100dc800d662a90000000000d1c2a80000000000ff
:100dd80014c0b300040078007deab7000080fa0070
:100de800000006000c00fa00d6a2a80000000000cf
:100df800d6c2a900000000000002eb00040f780032
:100e08000b003700d4a62000144278008482fb002f
:100e1800464828001e0278000402420004024300eb
:100e280014027800848f5200050036001e0fe80077
:100e38001e027800e30f5200f2ff3600010037006f
:100e4800000000001e027800e00f52001a003a006d
:100e5800d4a7200014427800e14f52000b003a005a
:100e680014a52000144278000002fd006eeab700c5
:100e78000002fd0094a52000144278000002fd0045
:100e88006feab7000002fd00a401370054a5200056
:100e9800144278000002fd006eeab7000002fd006f
:100ea800d4a52000144278000002fd006feab700c4
:100eb8000002fd00990137001e027800e30f52007e
:100ec8001a003600d4a7200014427800e14f5200df
:100ed8000b003a00e4a42000144278000002fd0050
:100ee8006eeab7000002fd0064a5200014427800f5
:100ef8000002fd006feab7000002fd00870137001d
:100f080024a52000144278000002fd006eeab70014
:100f18000002fd00a4a52000144278000002fd0094
:100f28006feab7000002fd007c0137001e0278005e
:100f3800e10f52007c003a00d4a720001442780048
:100f4800e14f52003c003a00d4a620001442780039
:100f58008480fb0004a52000144278000480fb0074
:100f680014a52000144278008483fb00454828001b
:100f78001e02780004024200048242001403780032
:100f88001e02e9004548280004024200048242008b
:100f98009402780001027800800178000701780047
:100fa800860078000500780001020700000278003a
:100fb80004427800040078006eeab700d4a6200046
:100fc800144278008480fb0084a520001442780035
:100fd8000480fb0094a52000144278008483fb0061
:100fe800454828001e02780004024200048242009c
:100ff800140378001e02e900454828000402420054
:10100800048242009402780001027800800178008e
:10101800070178008600780005007800e4010700e1
:1010280000027800044278000002fd006feab70071
:101038000002fd0039013700d4a6200014427800d0
:101048008480fb0044a52000144278000480fb0043
:1010580054a52000144278008483fb0045482800ea
:101068001e02780004024200048242001403780041
:101078001e02e9004548280004024200048242009a
:101088009402780001027800800178000701780056
:101098008600780005007800c50107000002780086
:1010a80004427800040078006eeab700d4a6200055
:1010b800144278008480fb00c4a520001442780004
:1010c8000480fb00d4a52000144278008483fb0030
:1010d800454828001e0278000402420004824200ab
:1010e800140378001e02e900454828000402420063
:1010f800048242009402780001027800800178009e
:10110800070178008600780005007800a80107002c
:1011180000027800044278000002fd006feab70080
:101128000002fd00fd0037001e027800e20f5200a9
:101138007c003a00d4a7200014427800e14f520006
:101148003c003a00d4a62000144278008480fb00ba
:10115800f4a42000144278000480fb0004a52000b9
:10116800144278008483fb00454828001e0278005a
:101178000402420004824200140378001e02e900bf
:101188004548280004024200048242009402780084
:101198000102780080017800070178008600780055
:1011a80005007800820107000002780004427800f8
:1011b800040078006eeab700d4a620001442780034
:1011c8008480fb0074a52000144278000480fb0092
:1011d80084a52000144278008483fb004548280039
:1011e8001e027800040242000482420014037800c0
:1011f8001e02e90045482800040242000482420019
:1012080094027800010278008001780007017800d4
:101218008600780005007800650107000002780064
:10122800044278000002fd006feab7000002fd00ea
:10123800ba003700d4a62000144278008480fb004e
:1012480034a52000144278000480fb0044a5200047
:10125800144278008483fb00454828001e02780069
:101268000402420004824200140378001e02e900ce
:101278004548280004024200048242009402780093
:101288000102780080017800070178008600780064
:101298000500780046010700000278000442780043
:1012a800040078006eeab700d4a620001442780043
:1012b8008480fb00b4a52000144278000480fb0061
:1012c800c4a52000144278008483fb004548280008
:1012d8001e027800040242000482420014037800cf
:1012e8001e02e90045482800040242000482420028
:1012f80094027800010278008001780007017800e4
:1013080086007800050078002901070000027800af
:10131800044278000002fd006feab7000002fd00f9
:101328007e0037001e027800e30f52007b003a006f
:10133800d4a7200014427800e14f52003c003a0044
:10134800d4a62000144278008480fb00e4a4200086
:10135800144278000480fb00f4a4200014427800b2
:101368008483fb00454828001e02780004024200de
:1013780004824200140378001e02e9004548280050
:1013880004024200048242009402780001027800bc
:101398008001780007017800860078000500780051
:1013a8000301070000027800044278000400780076
:1013b8006eeab700d4a62000144278008480fb00af
:1013c80064a52000144278000480fb0074a5200066
:1013d800144278008483fb00454828001e027800e8
:1013e8000402420004824200140378001e02e9004d
:1013f8004548280004024200048242009402780012
:1014080001027800800178000701780086007800e2
:1014180005007800e6000700000278000442780022
:101428000002fd006feab7000002fd003b00370034
:10143800d4a62000144278008480fb0024a5200054
:10144800144278000480fb0034a520001442780080
:101458008483fb00454828001e02780004024200ed
:1014680004824200140378001e02e900454828005f
:1014780004024200048242009402780001027800cb
:101488008001780007017800860078000500780060
:10149800c7000700000278000442780004007800c2
:1014a8006eeab700d4a62000144278008480fb00be
:1014b800a4a52000144278000480fb00b4a52000f5
:1014c800144278008483fb00454828001e027800f7
:1014d8000402420004824200140378001e02e9005c
:1014e8004548280004024200048242009402780021
:1014f80001027800800178000701780086007800f2
:1015080005007800aa00070000027800044278006d
:101518000002fd006feab7000002fd000002eb00c8
:10152800040f78008c0037001e027800e00f52008c
:1015380007003a00f4a62000144278000482fb0059
:101548000500200024079800350798003800370068
:101558001e027800e10f520007003a00e4a62000be
:10156800144278000482fb0005002000240798003c
:10157800350798002e0037001e027800e20f52004f
:101588000d003a00e4a62000144278006942520097
:101598000002fd0070eab7000002fd0004a7200069
:1015a800144278000482fb000500200024079800fc
:1015b800350798001e0037001e027800e30f52001e
:1015c80007003a00e4a52000144278000482fb00da
:1015d80005002000240798003507980014003700fc
:1015e8001e027800e40f520004003a006022b8009e
:1015f80024079800350798000d0037001e02780070
:10160800e50f520007003a0004a6200014427800b3
:101618000482fb0005002000240798003507980085
:10162800030037006022b8002407980035079800a7
:101638000002eb00140798002c003700e8c2a9004c
:10164800000000002e039000be0390000408200054
:10165800050020000600780007037800840378005e
:1016680005027800070060000402630005002000fe
:10167800c022dd00040020000403be006102b8009f
:101688000403730085837300460798005707980082
:101698002e029000be0290000402420085824a0099
:1016a80024079800350798004e039000de03900049
:1016b8000408200005002000840f5300858f5b007c
:1016c80003003a00e902a800000000000200370009
:1016d800e902a90000000000e8c2a800000000001c
:1016e8001e0290000402e800140798001e029000f1
:1016f800e70f5200d1ff36001e027800e10f5200ba
:1017080005003a00d762a90000000000d762a800cf
:10171800000000000f0037001e027800e30f52009f
:1017280005003a00d782a90000000000d782a8006f
:1017380000000000070037001e027800e50f520085
:1017480004003a00d7a2a90000000000d7a2a80010
:10175800000000001e0fe8001e027800e50f52008e
:1017680071ff3600d6a2a90000000000051780000e
:101778000404200004826200e00f520006003a00d0
:10178800d6c2a8000042eb000002fd0064eab700e0
:101798000002fd000300370014c0b3000400780005
:1017a80064eab700000000000080fa0000000600ac
:1017b8001400fa00889fbe008a9fbe005007980058
:1017c8006107980072079800030f9800140f98009b
:1017d8007e029000040f7800ee0290005e029000f6
:1017e800848f52004c0036000e0a9000050020003d
:1017f8000400be008afb07000004be007e029000c1
:10180800050020000400be0085fb07000002be00a2
:101818000401be000800be00c6fa07000002be00b0
:101828000404be006e029000050020000400be0003
:101838007bfb07000005be005e029000050020004b
:101848000400be0076fb07000002be000401be00d3
:101858000a00be00b7fa07000002be000401be007d
:101868000800be0011fb07000002be001407980024
:10187800250798001e0a9000050020000400be00fd
:1018880067fb07000004be005e0290000500200010
:101898000400be0062fb07000002be000401be0097
:1018a8000800be00a3fa07000002be003407980033
:1018b800450798001e019000ae0190003e00900080
:1018c800ce009000abfb07000002be003407980072
:1018d800450798007e029000050020000400be0025
:1018e8004ffb07000002be000401be003e0090004e
:1018f800ce00900090fa07000002be00340798005e
:10190800450798003e009000ce00900029fb070094
:101918000002be00040f78001e0278000400780060
:101928004f05be004f04be000080fa00000006000c
:101938000000fa00e4a72000144278000482fb00ab
:101948006102620004427800e04f52000300320056
:10195800e9c2a900d542a80002003700e9c2a800e0
:10196800d542a900e4a72000144278000482fb00b5
:1019780062026200e00f520003003200e982a9000f
:10198800c8a2a80002003700e982a800c8a2a900de
:10199800e4a72000144278000482fb00640262007d
:1019a800e00f520003003200e9a2a900c882a80093
:1019b80002003700e9a2a800c882a900e4a7200015
:1019c800144278000482fb0068026200e00f5200b3
:1019d80002003200e9e2a90001003700e9e2a800ac
:1019e800e4a72000144278000482fb007002620021
:1019f800e00f520003003200d022a900d402a80050
:101a080002003700d022a800d402a9000080fa0002
:101a180000000600801f7800849fbe000000fa00c6
:101a2800c45380000402e800c4538800c4538000f3
:101a3800e90f520012003600b453800004427800c7
:101a48000002fd007aeab7000002fd000002eb0088
:101a5800b45388000002eb00c4538800b5538000db
:101a680094192000848f52001500360014c0b3006a
:101a78000002fd0068eab7000002fd001000370010
:101a8800b553800094192000848f52000c00360052
:101a980014c0b3000400780068eab700c45380009b
:101aa80004427800a5c0b30004c2520004007800c4
:101ab80069eab70014c0b300040078006aeab70006
:101ac8000002eb003408880084c0a9000080fa00f6
:101ad8004f02be004f007800004006000000fa00e8
:101ae800140007008b0107008200070002000700ae
:101af8000080fa00000006000000fa0025048000bb
:101b08000408200004826200e00f5200070032003f
:101b180084e0a900044e80000402e800044e880016
:101b2800444c80000400a000444c88000080fa0067
:101b3800000006000a00fa002e0037008e00780028
:101b480000802000870507009e0278008407200097
:101b58008482620084032000848f520004003200d3
:101b6800b44d80000402e800b44d8800210037001d
:101b78009e027800844b2100848f520003003a00b3
:101b88000e007800860007001a0037009e027800d1
:101b9800845b2100848f520003003a000e00780015
:101ba8001f000700130037009e027800846321009d
:101bb800848f520003003a000e007800c500070029
:101bc8000c0037009e027800c4c72100848262009e
:101bd80084032100848f520003003a000e0078002d
:101be8000f00070003003700944d80000402e8004e
:101bf800944d8800008020000c0507000002780042
:101c0800e00f5200cdff3a0074458000d44d8800a3
:101c180034408000e44d88000080fa00000006008f
:101c28000400fa00100798001e029000c4029000f9
:101c3800050f780004002f009e02620004002700b0
:101c4800848f520004003200a44d80000402e80092
:101c5800a44d880025003700f4ff20009e02620092
:101c6800f40f2000848f520004003e00a44d800031
:101c78000402e800a44d88001c003700f4ff20008f
:101c88009e026200f42f2000848f520003003e0061
:101c98001e009000d705070014003700f4ff20004d
:101ca8009e026200f43f2000848f520004003e0030
:101cb800a44d80000402e800a44d88000b00370002
:101cc800f4ff20009e026200f44f2000848f52002f
:101cd80003003e001e009000b30007000300370019
:101ce800a44d80000402e800a44d88000080fa009a
:101cf800000006000200fa00344c8000630f620006
:101d08000a0007001e027800e00f520005003a00a2
:101d1800344c800063026200e00f52000100320080
:101d2800a90007000080fa00000006000000fa0081
:101d3800454c8000844c800004826200e00f520011
:101d480004003200344c80000400a000344c8800a9
:101d580004003700354c8000e4ff2f000482620045
:101d6800344c8800354c8000744c8000048262003a
:101d7800e00f520004003200344c80000410a00030
:101d8800344c880004003700354c8000d4ff2f0005
:101d980004826200344c88000080fa0000000600cb
:101da8000400fa00100798001e029000c402900078
:101db800050f780004002f009e026200040027002f
:101dc800848f520004003200a44d80000402e80011
:101dd800a44d880013003700f4ff20009e02620023
:101de800f4072000848f520003003e001e0090007c
:101df8000e0007000b003700f4ff20009e0262006f
:101e0800f40f2000848f520003003e001e00900053
:101e18008205070003003700a44d80000402e80093
:101e2800a44d88000080fa00000006000400fa00b3
:101e3800100798001e029000c4029000050f780059
:101e4800f4ff20001e0f62001e027800050020002b
:101e58005600200007002000860f5200878f5a0086
:101e680014003e000460010005003700060037003a
:101e7800100037001400370005003700090037004c
:101e88007c050700110037000000fe000f00370036
:101e9800354c8000f4fe2f0004826200344c880028
:101ea8000a003700344c80000440a000344c8800fd
:101eb80006003700a44d80000402e800a44d880005
:101ec8000000000001003700000000000080fa0058
:101ed800000006000400fa00100798001e02900097
:101ee800c4029000050f780004002f009e026200d3
:101ef80004002700848f520004003200a44d8000a3
:101f08000402e800a44d880025003700f4ff2000f3
:101f18009e026200f40f2000848f520004003e00ed
:101f2800a44d80000402e800a44d88001c0037007e
:101f3800f4ff20009e026200f42f2000848f5200dc
:101f480003003e001e0090003e0507001400370005
:101f5800f4ff20009e026200f43f2000848f5200ac
:101f680004003e00a44d80000402e800a44d88004f
:101f78000b003700f4ff20009e026200f44f20009f
:101f8800848f520003003e001e0090000a000700e4
:101f980003003700a44d80000402e800a44d880027
:101fa8000080fa00000006000200fa00000f780026
:101fb8000080fa00000006000200fa00000f780016
:101fc8000080fa00000006000a00fa00c4832a0014
:101fd800040f780055ff0700344c80001407980060
:101fe800444c800024079800544c80003407980023
:101ff800644c800044079800e14120000e007800fe
:1020080087040700344d80000402e800344d88003e
:102018000080fa00000006000200fa00000f7800b5
:102028000060fe000002eb00540888000080fa00ff
:10203800000006001400fa00500798006107980095
:1020480072079800030f9800140f98005e02900022
:102058006f02620054079800de0290000407200017
:1020680005027200540798005e02900004024200c4
:1020780054079800de0290000460200005027200f8
:10208800540798005e0290004222dd005407980031
:102098005e029000040f78009e02780004f02f0082
:1020a80004826200040f78001e0278004322dd00db
:1020b800040f78009e0278005e039000f40f200061
:1020c8000402630005027200040f78001e0a9000e3
:1020d800140798000e0a9000240798007e029000ca
:1020e800340798006e029000440798008e0078002c
:1020f800808a2000030407007421800068026200bf
:10210800e00f520001003a0088c0a8000080fa00e1
:10211800000006000000fa002504800004042000e6
:1021280004826200e00f52009f00320084c0a900c0
:10213800144e80000402e800144e8800144e8000fb
:102148006f026200144e88009fff0700144e800043
:1021580005002000f600200007002000860f52002e
:10216800878f5a0090003e00046001000f0037007e
:1021780018003700200037002900370032003700e8
:102188003b003700440037004d0037005600370049
:102198005f00370068003700710037007a003700a9
:1021a8007b0037007c0037007d003700e44a800060
:1021b800d74a8000c64a8000b54a80008701780067
:1021c80006017800850078000000eb0099ff070001
:1021d80075003700064b8000f54a80000002eb00ce
:1021e8008001eb00060178008500780010002000cf
:1021f80090ff07006c003700644b8000574b80004d
:10220800464b8000354b8000870178000601780036
:10221800850078002000200086ff07006200370054
:10222800a44b8000974b8000864b8000754b800044
:1022380087017800060178008500780030002000ca
:102248007cff070058003700e44b8000d74b800024
:10225800c64b8000b54b80008701780006017800e6
:10226800850078004000200072ff07004e0037000c
:10227800244c8000174c8000064c8000f54b8000f1
:10228800870178000601780085007800500020005a
:1022980068ff070044003700444d8000374d800038
:1022a800264d8000154d80008701780006017800d2
:1022b80085007800800020005eff07003a003700a4
:1022c800844d8000774d8000664d8000554d80001c
:1022d80087017800060178008500780090002000ca
:1022e80054ff070030003700c44d8000b74d800010
:1022f800a64d8000954d8000870178000601780082
:1023080085007800a00020004aff0700260037005b
:10231800044e8000f74d8000e64d8000d54d8000ca
:10232800870178000601780085007800b000200059
:1023380040ff07001c003700c44c8000b74c8000e9
:10234800a64c8000954c8000870178000601780033
:10235800850078006000200036ff07001200370073
:10236800044d8000f74c8000e64c8000d54c80007e
:102378008701780006017800850078007000200049
:102388002cff0700080037003d040700060037004f
:102398003e040700040037003f040700020037002e
:1023a80040040700000000000080fa00000006005a
:1023b8000e00fa0050079800610798000002eb0031
:1023c800040f78006e029000240798005e029000c7
:1023d80014079800e14020000e00780090030700e1
:1023e800444d80000402e800444d88000080fa0053
:1023f800000006001000fa005007980061079800d6
:1024080072079800c4032a00040f78007e02900027
:10241800140798005e029000240798006e0290004e
:10242800e10f520003003a0004102e004407980000
:102438000200370014102e0044079800e1402000e5
:102448000e00780076030700444d80000402e8007f
:10245800444d88000080fa00000006000000fa00e1
:1024680090c0a90088c0a900340580000480a1009c
:102478000490a10004a0a000340588000002eb002d
:10248800b42288005804a8005824a8005844a8007a
:1024980058a4a800008020006b030700808a200051
:1024a800690307000440200084228800000000001f
:1024b80085228000040e2000848262000408200027
:1024c800848f5200faff3a001400200094228800fa
:1024d80014392000a422880014802100841f880059
:1024e800d4872100c41f88000002eb00041e880066
:1024f80004802000441e880084032100841e880074
:10250800c47f2100c41e8800c47f2100041f8800e6
:10251800c47f2100441f8800140020007421880013
:1025280024002000f4208800340020007420880053
:10253800040c200024218800040c2000a42088001a
:10254800040c2000242088000002eb00742288007c
:102558000002eb00f42188000002eb0084228800ce
:102568000000000085228000040e20000482620022
:10257800e00f5200fbff3a0090c0a80054fb250072
:102588008408880024f42000640888000002eb0016
:102598003408880084c0a9008cc0a90011e1a800f3
:1025a800d4fb25009408880054622200740888002f
:1025b80084e0a9008ce0a90013e1a8000002eb0068
:1025c800944c880004d82800a44c8800441f20009c
:1025d800b44c880014042000c44c8800940c2000db
:1025e800d44c88000002eb00f44c88000002eb0099
:1025f800e44c880024002000044d88000080fa0084
:10260800000006003600f800809fbe00829fbe00d2
:10261800849fbe00869fbe000a00fa0088c0a900f9
:10262800844d80000402e800844d880075228000f3
:102638000408200004826200e00f520018003200f3
:102648007422800061026200e00f52000b003a0021
:10265800544d80000402e800544d8800e1442000f5
:102668000e007800930207003e029000844a88001a
:102678004e029000944a880008003700644d80009c
:102688000402e800644d8800e14420000e00780050
:10269800880207000e0078005ffe07005604a900b4
:1026a800f52180000408200004826200e00f520037
:1026b80007003200744d80000402e800744d880061
:1026c800e1432000008020005d0207005624a90095
:1026d8007421800068026200e00f52000c003a008a
:1026e800808a20005102070000027800e00f5200a3
:1026f80007003200e1422000808a2000b202070071
:102708005644a900c44d80000402e800c44d880066
:10271800b52280000402200004826200e00f52000b
:1027280005003200244d80000402e800244d880092
:1027380056a4a900070037008416800070026200c2
:10274800e00f520002003200d082a90001003700d9
:10275800d082a800d4228000144d88000080fa009e
:102768004f03be004f02be004f01be004f00be0027
:102778003600f900004006000000fa000a000700d1
:102788000060fe005a0007000060fe0058000700c5
:102798000060fe003b010700590107006e010700b9
:1027a8000080fa00000006000000fa00dec2a8005f
:1027b800d682a900d6a2a800d6c2a900d282a900b2
:1027c800d2a2a900d2c2a900c1e2a800c1c2a80031
:1027d800dec2a800d042a900cc42a900d062a9005c
:1027e800cc62a900cc82a800de62a800d3e2a900ce
:1027f800d7e2a800de42a900dee2a800df02a800b6
:10280800d3c2a800e842a900e442a800e862a900ef
:10281800e462a800c662a800c642a800d1c2a80007
:10282800cdc2a900d2e2a900d6e2a800d622a9000a
:10283800d222a900d642a800d242a900d662a80096
:10284800d262a900c182a800c1a2a800d302a9002f
:10285800d502a900cda2a900cfa2a900d322a90020
:10286800d522a900c6a2a900c8a2a900c682a900ab
:10287800c882a900d202a900d402a900d342a900a3
:10288800d542a900e5a2a900e9a2a800e582a9000d
:10289800e982a800e5c2a900e9c2a800e5e2a9000a
:1028a800e9e2a800cc22a900d022a800e8c2a90029
:1028b800e4c2a900e902a900e502a900e4e2a8002f
:1028c800d382a900d782a900d3a2a900d7a2a900c0
:1028d800d362a900d762a900e422a900e622a900d0
:1028e800de82a800dea2a9000080fa00000006002f
:1028f8000400fa000082eb0014079800e9c2a8005f
:10290800e982a800e9a2a800e9e2a800d022a8006c
:10291800010037001e0fe8001e0290009e0278009a
:10292800848f5200fbff3a00e9c2a900e982a8009f
:10293800e9a2a800e9e2a800d022a8000002eb0062
:10294800040f7800010037001e0fe8001e029000f7
:102958009e027800848f5200fbff3a00e9c2a8006b
:10296800e982a900e9a2a800e9e2a800d022a8000b
:102978000002eb00040f7800010037001e0fe8008a
:102988001e0290009e027800848f5200fbff3a00de
:10299800e9c2a800e982a800e9a2a900e9e2a80022
:1029a800d022a8000002eb00040f780001003700d5
:1029b8001e0fe8001e0290009e027800848f5200cd
:1029c800fbff3a00e9c2a800e982a800e9a2a80032
:1029d800e9e2a900d022a8000002eb00040f780069
:1029e800010037001e0fe8001e0290009e027800ca
:1029f800848f5200fbff3a00e9c2a800e982a800d0
:102a0800e9a2a800e9e2a800d022a9000002eb0090
:102a1800040f7800010037001e0fe8001e02900026
:102a28009e027800848f5200fbff3a00e9c2a8009a
:102a3800e982a800e9a2a800e9e2a900d022a8003a
:102a48000002eb00040f7800010037001e0fe800b9
:102a58001e0290009e027800848f5200fbff3a000d
:102a6800e9c2a800e982a800e9a2a900e9e2a80051
:102a7800d022a8000002eb00040f78000100370004
:102a88001e0fe8001e0290009e027800848f5200fc
:102a9800fbff3a00e9c2a800e982a900e9a2a80060
:102aa800e9e2a800d022a8000002eb00040f780099
:102ab800010037001e0fe8001e0290009e027800f9
:102ac800848f5200fbff3a00e9c2a900e982a800fe
:102ad800e9a2a800e9e2a800d022a8000002eb00c1
:102ae800040f7800010037001e0fe8001e02900056
:102af8009e027800848f5200fbff3a00e9c2a800ca
:102b0800e982a800e9a2a800e9e2a800d022a8006a
:102b18000002eb00040f7800010037001e0fe800e8
:102b28001e0290009e027800848f5200fbff3a003c
:102b3800e9c2a900e982a900e9a2a900e9e2a9007d
:102b4800d022a9000002eb00040f78000100370032
:102b58001e0fe8001e0290009e027800848f52002b
:102b6800fbff3a00e9c2a800e982a800e9a2a80090
:102b7800e9e2a800d022a8000002eb00040f7800c8
:102b8800010037001e0fe8001e0290009e02780028
:102b9800848f5200fbff3a00e9c2a900e982a9002c
:102ba800e9a2a900e9e2a900d022a9000002eb00ed
:102bb800040f7800010037001e0fe8001e02900085
:102bc8009e027800848f5200fbff3a00e9c2a800f9
:102bd800e982a800e9a2a800e9e2a800d022a8009a
:102be8000002eb00040f7800010037001e0fe80018
:102bf8001e0290009e027800848f5200fbff3a006c
:102c0800e9c2a900e982a900e9a2a900e9e2a900ac
:102c1800d022a9000002eb00040f78000100370061
:102c28001e0fe8001e0290009e027800848f52005a
:102c3800fbff3a00e9c2a800e982a800e9a2a800bf
:102c4800e9e2a800d022a8000002eb00040f7800f7
:102c5800010037001e0fe8001e0290009e02780057
:102c6800848f5200fbff3a00e9c2a900e982a8005c
:102c7800e9a2a800e9e2a800d022a8000080fa0092
:102c8800000006000000fa00a09c20007301070065
:102c9800c0a0200071010700f4002000f410880093
:102ca8000002eb00b41088000042eb00040078003a
:102cb800c8e9b7008720a9008700a9008f20a800cd
:102cc800040580000440a0000450a1000460a10095
:102cd800040588008f00a800040580000400a000f7
:102ce8000410a1000420a1000405880017e2a80030
:102cf80004402000c41088000080fa00000006008c
:102d08000000fa008880a9009080a8008260a800ce
:102d1800340580000400a0000410a0000420a000d6
:102d2800340588000080fa00000006000000fa0060
:102d380088a0a90090a0a8008280a900340580007e
:102d48000440a0000450a0000460a00034058800de
:102d58000080fa00000006000000fa0084088000e5
:102d68000440a1000450a000840888001021a90094
:102d780094d02300640888000002eb00340888001f
:102d880084c0a9008cc0a800b40480000480a000fe
:102d98000490a10004a0a000b404880011e1a800d8
:102da8000080fa00000006000600fa00d062a900c0
:102db800d042a9001000200001002000bc0107003b
:102dc800d042a8001000200001002000b801070030
:102dd800741680004422de00614262000482fb0017
:102de800040f78000042eb002447980010003700d9
:102df800d062a8001e02780004024200040f780086
:102e0800741680004422de00614262000482fb00e6
:102e18001e0f7200d062a9001000200001002000df
:102e2800a30107002e4290000442e80024479800be
:102e38002e429000e74f5200edff36001e02780048
:102e48000442780061426200344798001e0278000c
:102e58000442780070426200444798004e42900055
:102e68000482fb004422de00844278003e42900047
:102e780084cf52000200320000c2eb00620037002b
:102e88001e027800044278006242620034479800cb
:102e98001e027800044278000442b20044479800b9
:102ea8004e4290000482fb004422de0084427800f7
:102eb8003e42900084cf52000200320000c2eb0074
:102ec800510037001e027800044278006442620014
:102ed800344798001e027800044278000444b20087
:102ee800444798004e4290000482fb004422de00d2
:102ef800844278003e42900084cf520002003200a3
:102f080000c2eb00400037001e027800044278003f
:102f180068426200344798001e02780084427800b4
:102f280004c8b30004c26200444798004e429000af
:102f38000482fb004422de00844278003e42900076
:102f480084cf52000200320000c2eb002e0037008e
:102f58001e027800044278006842620034479800f4
:102f68001e027800044278006742620044479800d5
:102f7800be4290004e42900084cf520002003200c0
:102f880000c2eb0020003700940920009e02780060
:102f9800848f520002003a0024c0b3001a003700a0
:102fa800a40a20009e027800848f520002003a0092
:102fb80044c0b30014003700c40c20009e027800ff
:102fc800848f520002003a0084c0b3000e0037001c
:102fd800740720009e027800848f520002003a0095
:102fe80004c1b30008003700f40f20009e027800e7
:102ff800848f520003003a001e02780004427800d1
:10300800010037000042eb00044078000080fa001d
:1030180000000600100190009000780001005100a7
:103028000000e900f000b200000006001001900066
:103038009000780002805000f000b2000000060006
:103048001170a6001a003700e40140009309e80057
:10305800900190001001e800f200b2000310e100b6
:1030680010003200100178006a11b800e801400031
:10307800828141006e8150009219780066014100fa
:10308800b2197800b2197800b2197800b21978002c
:103098001001e800f200b20002087800e6014000e2
:1030a8009309e900e60140009309e8001170a100c6
:1030b800000006001170a600090037006e8150005c
:1030c800121878006601410032187800321878002a
:1030d80032187800321878001170a1000800370003
:1030e800827f210002187800020020000218780070
:1030f80002187800021878000218780031003700aa
:1031080000000600e40140009309e80090019000e7
:103118001001e800f200b2000310e1000e003200d6
:10312800100178006a11b800e8014000828141006e
:10313800b1197800b1197800b1197800b11978007f
:10314800b11978001001e800f200b2000208780016
:10315800e60140009309e900e60140009309e80010
:103168000000060010019000900178000310e100b3
:1031780008003a00837f21008318780003002000ac
:1031880083187800831878008318780083187800eb
:103198000c0037006a11b8006801410000014100c5
:1031a800b2187800b2187800b2187800b21878000f
:1031b800b2187800100190000201e800f200b20095
:1031c80012009800000006001130a7001300370015
:1031d80010019000900178000310e1000f00320008
:1031e8006a11b8006801410000014100ee815000f9
:1031f800b2097800e6814100b2197800b219780066
:10320800b2197800b21978001130a00010019000ae
:103218000201e800f200b200120098000000060067
:103228001130a1006e81500030097800660141001c
:103238003019780030197800301978003019780082
:103248001130a000000006000018eb000018eb0089
:103258000018eb000008eb00000006000200fa006e
:10326800000f78009e0278000042eb0084c29800ac
:103278009e0278000042eb0094c298000080fa0099
:10328800000006000400fa00000f780021479800ab
:103298001e02780004c290000482fb009e0278009f
:1032a8002e43900086727a001e02780004c29000b5
:1032b8000442e8009e02780084c298001e0278004a
:1032c80004c29000f443b2009e02780084c29800c1
:1032d8001e02780084c290001e02780014c290007a
:1032e80084cf52000a003a001e02780014c29000ef
:1032f8000442e8009e02780094c298001e027800fa
:1033080014c29000f443b2009e02780094c2980060
:103318000080fa00000006000400fa001007980078
:103328001e02900094c29000154798001e0290005b
:1033380084c290001e42900084cf52000e003200da
:103348001e4290000482fb009e029000654f7a00a6
:103358001e4290000442e800144798001e42900064
:10336800f443b200144798001e0290009e42900059
:1033780015c29800020037000042eb00044f7800a5
:103388001e427800044078000080fa000000060021
:103398000200fa00000f78001e02780084c2900034
:1033a8001e02780014c2900004c25200f443b20016
:1033b800044078000080fa00000006000200fa00cd
:1033c800000f78001e02780084c290001e02780068
:1033d80014c2900084cf520002003a000042eb0071
:1033e8000100370014c0b300044078000080fa00e0
:1033f800000006000400fa00100798001e02900062
:10340800c4029000050f7800a44d80000402e80073
:10341800a44d88000080fa00000006000400fa00ad
:10342800100798001e029000c4029000050f780053
:10343800a44d80000402e800a44d88000080fa0032
:10344800000006000400fa00100798001e02900011
:10345800c4029000050f7800f4ff20001e0f6200e0
:10346800a44d80000402e800a44d88000080fa0002
:10347800000006000000fa000080fa0000000600c4
:103488000000fa000080fa00000006000000fa00c0
:103498000080fa00000006000000fa000080fa0030
:1034a800000006000000fa000080fa000000060094
:020000040000fa
:1034b800f03fb1000180b10006003500ee030900bd
:1034c80000000000403fb1000180b100fbff3d005b
:1034d8001000b000203fb000020035000080090055
:0834e8000000000000000600d6
:020000040000fa
:1034f000c4090000be000000000000000008000039
:0c350000c40100000000000000000000fa
:020000040000fa
:0c350c000000fa0001f50700feff370088
:020000040000fa
:0200000401f009
:04000000ebbb000056
:020000040000fa
:0200000401f009
:04000400f1ff000008
:020000040000fa
:0200000401f009
:04000800efff000006
:020000040000fa
:0200000401f009
:04000c00ffff0000f2
:020000040000fa
:0200000401f009
:04001000ffff0000ee
:020000040000fa
:0200000401f009
:04001400ffff0000ea
:020000040000fa
:0200000401f009
:04001800ffff0000e6
:00000001FF
